{
  "contractName": "TokenGovernance",
  "abi": [
    {
      "inputs": [
        {
          "internalType": "contract ERC20",
          "name": "tokenCoin",
          "type": "address"
        }
      ],
      "stateMutability": "nonpayable",
      "type": "constructor"
    },
    {
      "inputs": [],
      "name": "_token",
      "outputs": [
        {
          "internalType": "contract ERC20",
          "name": "",
          "type": "address"
        }
      ],
      "stateMutability": "view",
      "type": "function"
    },
    {
      "inputs": [],
      "name": "tokenCounter",
      "outputs": [
        {
          "internalType": "uint256",
          "name": "",
          "type": "uint256"
        }
      ],
      "stateMutability": "view",
      "type": "function"
    },
    {
      "inputs": [],
      "name": "votersCounter",
      "outputs": [
        {
          "internalType": "uint256",
          "name": "",
          "type": "uint256"
        }
      ],
      "stateMutability": "view",
      "type": "function"
    },
    {
      "inputs": [],
      "name": "vote",
      "outputs": [],
      "stateMutability": "nonpayable",
      "type": "function"
    },
    {
      "inputs": [],
      "name": "endVote",
      "outputs": [],
      "stateMutability": "nonpayable",
      "type": "function"
    },
    {
      "inputs": [],
      "name": "getStatus",
      "outputs": [
        {
          "internalType": "bool",
          "name": "",
          "type": "bool"
        }
      ],
      "stateMutability": "view",
      "type": "function"
    },
    {
      "inputs": [],
      "name": "getToken",
      "outputs": [
        {
          "internalType": "contract ERC20",
          "name": "",
          "type": "address"
        }
      ],
      "stateMutability": "view",
      "type": "function"
    },
    {
      "inputs": [
        {
          "internalType": "address",
          "name": "acc",
          "type": "address"
        }
      ],
      "name": "hasVoted",
      "outputs": [
        {
          "internalType": "bool",
          "name": "",
          "type": "bool"
        }
      ],
      "stateMutability": "view",
      "type": "function"
    }
  ],
  "bytecode": "0x608060405234801561001057600080fd5b506040516108083803806108088339818101604052810190610032919061008d565b806000806101000a81548173ffffffffffffffffffffffffffffffffffffffff021916908373ffffffffffffffffffffffffffffffffffffffff16021790555050610111565b600081519050610087816100fa565b92915050565b60006020828403121561009f57600080fd5b60006100ad84828501610078565b91505092915050565b60006100c1826100da565b9050919050565b60006100d3826100b6565b9050919050565b600073ffffffffffffffffffffffffffffffffffffffff82169050919050565b610103816100c8565b811461010e57600080fd5b50565b6106e8806101206000396000f3fe608060405234801561001057600080fd5b50600436106100885760003560e01c8063b92239461161005b578063b922394614610103578063c659b4f41461010d578063d082e3811461012b578063ecd0c0c31461014957610088565b806309eef43e1461008d57806321df0da7146100bd5780634e69d560146100db578063632a9a52146100f9575b600080fd5b6100a760048036038101906100a29190610450565b610167565b6040516100b491906104f9565b60405180910390f35b6100c56101bd565b6040516100d29190610514565b60405180910390f35b6100e36101e6565b6040516100f091906104f9565b60405180910390f35b6101016101fd565b005b61010b6103a1565b005b6101156103f6565b604051610122919061052f565b60405180910390f35b6101336103fc565b604051610140919061052f565b60405180910390f35b610151610402565b60405161015e9190610514565b60405180910390f35b6000600360008373ffffffffffffffffffffffffffffffffffffffff1673ffffffffffffffffffffffffffffffffffffffff16815260200190815260200160002060009054906101000a900460ff169050919050565b60008060009054906101000a900473ffffffffffffffffffffffffffffffffffffffff16905090565b6000600460009054906101000a900460ff16905090565b600460009054906101000a900460ff161561021757600080fd5b600360003373ffffffffffffffffffffffffffffffffffffffff1673ffffffffffffffffffffffffffffffffffffffff16815260200190815260200160002060009054906101000a900460ff161561026e57600080fd5b6001600360003373ffffffffffffffffffffffffffffffffffffffff1673ffffffffffffffffffffffffffffffffffffffff16815260200190815260200160002060006101000a81548160ff021916908315150217905550600160008154809291906102d99061060c565b919050555060008054906101000a900473ffffffffffffffffffffffffffffffffffffffff1673ffffffffffffffffffffffffffffffffffffffff166370a08231336040518263ffffffff1660e01b815260040161033791906104de565b60206040518083038186803b15801561034f57600080fd5b505afa158015610363573d6000803e3d6000fd5b505050506040513d601f19601f820116820180604052508101906103879190610479565b60026000828254610398919061054a565b92505081905550565b600460009054906101000a900460ff16156103bb57600080fd5b6002600154116103ca57600080fd5b6005600254116103d957600080fd5b6001600460006101000a81548160ff021916908315150217905550565b60015481565b60025481565b60008054906101000a900473ffffffffffffffffffffffffffffffffffffffff1681565b60008135905061043581610684565b92915050565b60008151905061044a8161069b565b92915050565b60006020828403121561046257600080fd5b600061047084828501610426565b91505092915050565b60006020828403121561048b57600080fd5b60006104998482850161043b565b91505092915050565b6104ab816105a0565b82525050565b6104ba816105b2565b82525050565b6104c9816105e8565b82525050565b6104d8816105de565b82525050565b60006020820190506104f360008301846104a2565b92915050565b600060208201905061050e60008301846104b1565b92915050565b600060208201905061052960008301846104c0565b92915050565b600060208201905061054460008301846104cf565b92915050565b6000610555826105de565b9150610560836105de565b9250827fffffffffffffffffffffffffffffffffffffffffffffffffffffffffffffffff0382111561059557610594610655565b5b828201905092915050565b60006105ab826105be565b9050919050565b60008115159050919050565b600073ffffffffffffffffffffffffffffffffffffffff82169050919050565b6000819050919050565b60006105f3826105fa565b9050919050565b6000610605826105be565b9050919050565b6000610617826105de565b91507fffffffffffffffffffffffffffffffffffffffffffffffffffffffffffffffff82141561064a57610649610655565b5b600182019050919050565b7f4e487b7100000000000000000000000000000000000000000000000000000000600052601160045260246000fd5b61068d816105a0565b811461069857600080fd5b50565b6106a4816105de565b81146106af57600080fd5b5056fea2646970667358221220d754bac0da6944f9251c4bf963d28e4dc14fdde3da72269348f28797c315c32564736f6c63430008000033",
  "immutableReferences": {},
  "source": "// SPDX-License-Identifier: MIT\npragma solidity ^0.8.0;\nimport \"@openzeppelin/contracts/token/ERC20/ERC20.sol\";\nimport \"./Coin.sol\";\n\ncontract TokenGovernance {\n\n    ERC20 public _token;\n    uint256 public votersCounter;\n    uint256 public tokenCounter;\n    mapping(address => bool) whoVoted;\n    bool private _finalized;\n\n    constructor(ERC20 tokenCoin) {\n        _token = tokenCoin;\n    }\n\n    function vote() public {\n        require(!_finalized);\n        require(!whoVoted[msg.sender]);\n        whoVoted[msg.sender] = true;\n        votersCounter++;\n        tokenCounter += _token.balanceOf(msg.sender);\n    }\n\n    function endVote() public {\n        require(!_finalized);\n        require(votersCounter > 2);\n        require(tokenCounter > 5);\n        _finalized = true;\n    }\n\n    function getStatus() public view returns(bool) {\n        return _finalized;\n    }\n\n    function getToken() public view returns(ERC20) {\n        return _token;\n    }\n\n    function hasVoted(address acc) public view returns(bool) {\n        return whoVoted[acc];\n    }\n}",
  "sourcePath": "/Users/paulochade/Desktop/Truffle-React-Template/src/contracts/TokenGovernance.sol",
  "compiler": {
    "name": "solc",
    "version": "0.8.0+commit.c7dfd78e.Emscripten.clang"
  },
  "schemaVersion": "3.4.3",
  "updatedAt": "2022-04-14T00:09:44.914Z",
  "devdoc": {
    "kind": "dev",
    "methods": {},
    "version": 1
  },
  "userdoc": {
    "kind": "user",
    "methods": {},
    "version": 1
  }
}